:020000040800F2
:1000000048210020B10100089B220008F51C0008CF
:1000100099220008E9020008C13F00080000000022
:10002000000000000000000000000000192400088B
:1000300061030008000000001724000825240008C0
:10004000CB010008CB010008CB010008CB01000860
:10005000CB010008CB010008CB010008CB01000850
:10006000CB010008CB010008CB010008CB01000840
:10007000CB010008CB010008CB010008CB01000830
:10008000CB010008CB010008CB01000800000000F4
:10009000000000000000000000000000CB0100088C
:1000A000CB010008CB010008CB010008CB01000800
:1000B000CB010008CB010008CB010008CB010008F0
:1000C000CB010008CB010008CB010008CB010008E0
:1000D000CB010008CB010008CB01000800000000A4
:1000E000CB010008CB010008CB0100080000000094
:1000F000000000000000000000000000CB0100082C
:1001000000000000CB010008CB010008CB01000873
:1001100000000000000000000000000000000000DF
:10012000CB010008CB010008CB010008CB0100087F
:10013000CB010008000000000000000000000000EB
:100140000000000000000000000000009D220008E8
:10015000CB010008CB010008CB010008CB0100084F
:10016000CB010008CB0100080000000000000000E7
:10017000000000000000000000000000000000007F
:1001800000000000CB01000800000000000000009B
:10019000CB010008CB010008DFF810D000F092F886
:1001A00000480047AD450008AFF30080482100201B
:1001B0000648804706480047FEE7FEE7FEE7FEE701
:1001C000FEE7FEE7FEE7FEE7FEE7FEE7B9240008EC
:1001D000990100082DE9F05F0546002092469B46F4
:1001E00088460646814640241BE02846414647464D
:1001F000224600F057F853465A46C01A914110D390
:1002000011461846224600F03EF82D1A67EB010809
:100210004F4622460120002100F035F817EB000977
:100220004E41201EA4F10104DFDC484631462A4637
:100230004346BDE8F09FD2B201E000F8012B491E11
:10024000FBD270470022F6E710B513460A46044673
:100250001946FFF7F0FF204610BD30B50B460146AA
:1002600000202022012409E021FA02F59D4205D355
:1002700003FA02F5491B04FA02F52844151EA2F1FF
:100280000102F1DC30BD202A04DB203A00FA02F141
:10029000002070479140C2F1200320FA03F3194374
:1002A00090407047202A04DB203A21FA02F0002116
:1002B000704721FA02F3D040C2F120029140084376
:1002C00019467047064C074D06E0E06840F0010310
:1002D00094E8070098471034AC42F6D3FFF760FF6C
:1002E0007846000898460008FEE700207047002086
:1002F0007047000010B500220449054802F0C4FA16
:100300000449034802F0B3FA002010BD400E00205B
:10031000640100204006002010B50146034802F0A9
:10032000A6FA024802F07CFA002010BD6401002009
:1003300000207047094A10B5D2F8BC22D2F8142226
:100340000AB1012010BD0A460146044802F09CFA99
:10035000BDE81040014802F011BB0000640100201C
:10036000704772B6FEE7000070B5044600F0A2F9CF
:100370000546601C02D004480078044400F09AF955
:10038000401BA042FAD370BD640000202DE9F04F5D
:100390000022DFF808B101264FF00F0906FA02F437
:1003A00001EA0403A34274D122F003075F44D7F8A3
:1003B000088895074FEA157C09FA0CFA0AEA08053D
:1003C000DFF8DC80404502D14FF000081DE0DFF887
:1003D000D480404502D14FF0010816E0DFF8C88014
:1003E000404502D14FF002080FE0DFF8C0804045E1
:1003F00002D14FF0030808E0DFF8B480404502D195
:100400004FF0040801E04FF0070808FA0CF8A8457F
:1004100022D1284DD5F800C02CEA030CC5F800C045
:100420002D1DD5F800C02CEA030CC5F800C0214DE5
:100430000C35D5F800C02CEA030CC5F800C02D1F00
:10044000D5F800C02CEA030CC5F800C0D7F808584E
:1004500025EA0A05C7F80858056857000323BB407A
:100460009D430560D50800EB8505D5F820C05707EA
:100470004FEAD76809FA08F72CEA070CC5F820C03C
:10048000C5689D43C5604568A543456084689C4335
:100490008460521C102A81D3BDE8F08F00300140E7
:1004A000000002400004024000080240000C02402C
:1004B00000100240003C01402DE9F84FDFF8B8A1E0
:1004C0000022012403254FF00F090AF1040BAAF1C1
:1004D000040E00BF0B6804FA02F63340B34273D136
:1004E0000F7907F00307012F01D0022F16D187687B
:1004F0004FEA420805FA08FC27EA0C07D1F80CC0BD
:100500000CFA08FC4CEA070CC0F808C04768B7436F
:100510000E79C6F3001696403E4346600E79F643C8
:10052000B6070DD0C768560005FA06FC27EA0C0787
:10053000D1F808C00CFA06FC4CEA070CC0F80CC055
:100540000E7906F00306022E10D1D60800EB8608BD
:10055000D8F8206057074FEAD76C09FA0CF7BE436A
:100560000F6907FA0CF73743C8F8207006684FEA9E
:10057000420C05FA0CF7BE430F7907F0030707FAA0
:100580000CF7374307604E6816F4403F6DD03B4E82
:10059000376847F480473760366822F0030706F46F
:1005A00080460096364E07EB060CDCF80868970785
:1005B0003F0F09FA07F826EA0806DFF8C880404529
:1005C00003D14FF000081EE04FE0DFF8BC8040454B
:1005D00002D14FF0010816E0DFF8B080404502D1AB
:1005E0004FF002080FE0DFF8A880404502D14FF03D
:1005F000030808E0DFF89C80404502D14FF0040872
:1006000001E04FF0070808FA07F848EA0608CCF8B6
:100610000888DAF800605746D1F804C09E435FEAC4
:10062000CC2C00D51E433E60DBF800605F46D1F85D
:1006300004C09E435FEA8C2C00D51E433E60DEF86A
:1006400000607746D1F804C09E435FEA8C3C00D539
:100650001E433E60084F083F3E68D1F804C09E43E9
:100660005FEACC3C00D51E433E60521C102AFFF4CA
:1006700031AFBDE8F88F0000083C0140443802402B
:100680000030014000000240000402400008024027
:10069000000C024000100240426921EA02030A40B5
:1006A00043EA0241816170470AB1816170470904E0
:1006B000FBE70000014880687047000064000020EC
:1006C00010B5040013D0242084F83D002068016890
:1006D00021F001010160204600F060FA0020206452
:1006E00084F83D0044F8300FA073207310BD012042
:1006F00010BD000070B5040025D094F83D00002521
:1007000020B984F83C50204600F064FA242084F894
:100710003D002068016821F0010101602068016846
:1007200041F4004101602068016821F4004101604A
:1007300001F0D4F84D4A6168914201D84C4900E07B
:100740004C49884201D2012070BD4B492368B0FB5F
:10075000F1F15E6826F03F060E435E6063689342E7
:1007600006D94FF4967359434FF47A73B1FBF3F102
:100770002368491C1E6A26F03F06314319626168EE
:10078000914210D84900401EB0FBF1F2521CC2F356
:100790000B02042A01D2042022E0B0FBF1F0401C3D
:1007A000C0F30B001CE0A268F2B301EBC10303EB42
:1007B0000116431EB3FBF6F35B1C43F480431B0599
:1007C00049D092B301EBC10202EB0111401EB0FB14
:1007D000F1F0401CC0F30B0040F4804040F40040B6
:1007E0002168CA694CF6FF739A431043C861D4E983
:1007F000071001432068026822F0C0021143016023
:10080000D4E9030101432068826848F2FF339A4328
:1008100011438160D4E9050108432168CA6822F0C8
:10082000FF021043C86001E00EE016E02068016896
:1008300041F0010101602564202084F83D0025631A
:1008400084F83E50002070BD01EB4106431EB3FB0F
:10085000F6F35B1CB3E70120C2E701EB4101401E48
:10086000B0FBF1F0401CC0F30B00B7E7A08601001D
:1008700080841E0000093D0040420F002DE9F84F22
:100880001F4690468A460446DDF82890FFF712FF7F
:10089000054694F83D00202871D1192301227049A2
:1008A0002046009501F06AFB0028F5D194F83C0041
:1008B000012864D0012084F83C0020680168C90741
:1008C00003D1016841F0010101602068016821F451
:1008D00000610160222084F83D00102084F83E0071
:1008E00000262664C4F824806785608D20855D48D5
:1008F000E0622B464A465146204601F049FA00285C
:1009000076D1208D584F68B1012814D00228206874
:10091000016816D041F480610160206841698069F6
:1009200000908EE02068416981690091016841F47E
:100930000071016085E02068016821F48061016038
:10094000F0E721F4806101602068016841F40061F2
:10095000E2E7032846D801280AD0022810D04B46E7
:10096000002239462046009501F008FBC8BB25E06F
:100970002A464946204601F0A7FB90BB54E06CE0B4
:100980004B46002239462046009501F0F7FA40BB5D
:100990002068016841F40071016020680069616AA3
:1009A0000870606A401C6062218D491E2185618D3E
:1009B000491E618521680969017039E02068016874
:1009C00021F48061016020680069616A0870606AD2
:1009D000401C6062208D401E2085608D401E608519
:1009E000CEE705E02A464946204601F06DFB10B1EE
:1009F0000120BDE8F88F20680069616A0870606AAC
:100A0000401C6062208D401E81B22185608D401E99
:100A1000608520684269D243520712D4032903D16A
:100A2000016821F48061016020680069616A0870D2
:100A3000606A401C6062208D401E2085608D401ED3
:100A40006085208D002884D1202084F83D0084F822
:100A50003E6084F83C600020CBE70220C9E700003C
:100A6000020010000000FFFF040001002DE9FF4F0D
:100A700083B09A46DDE9119793460446DDF840803D
:100A8000FFF718FE054694F83D0020287FD1192372
:100A9000012240492046009501F070FA002876D1E5
:100AA00094F83C00012872D0012084F83C002068B2
:100AB0000168C90703D1016841F0010101602068A4
:100AC000016821F400610160212084F83D0040208C
:100AD00084F83E0000262664C4F82480A4F82A90F6
:100AE000608D20852C48E062CDE9007553465A465A
:100AF0002046049901F0C2F970B930E02A4639461F
:100B0000204601F019FB58B1206C042804D120685C
:100B1000016841F400710160012007B0BDE8F08F69
:100B2000606A216800780861606A401C6062218DFB
:100B3000491E89B22185628D521E628522685369E1
:100B4000DB435B070BD469B100781061606A401C1D
:100B50006062208D401E2085608D401E6085208D46
:100B60000028CBD12A463946204601F0DBF900287F
:100B7000CAD154F83D0B016841F400710160202096
:100B800004F81E09E67766770020C6E7FFE7022033
:100B9000C3E70000020010000000FFFF10B500686E
:100BA000094988420FD10948016821F40011016008
:100BB000074C40212046FFF7E9FB2046BDE81040E6
:100BC0008021FFF7E3BB10BD0054004040380240D5
:100BD0000004024010B586B0044614216846FFF7B1
:100BE00031FB13492068884220D112480021026855
:100BF00042F002020260006800F002000590C0208E
:100C000000901220CDE901010320039004200490FC
:100C100069460948FFF750FC06481030016841F466
:100C200000110160006800F40010059006B010BDCE
:100C300000540040303802400004024002488168FD
:100C40000278114481607047640000200B4810B5A1
:100C5000016841F400710160016841F48061016044
:100C6000016841F480710160032000F06FF80F20EB
:100C700000F006F800F024F8002010BD003C02400F
:100C800070B50D4D04464FF47A712878B1FBF0F041
:100C90000A490968B1FBF0F001F018F848B9102CC6
:100CA00007D200222146501E00F030F800206C6070
:100CB00070BD012070BD00006400002070000020A5
:100CC0000A4808B5016841F480410160006800F4F9
:100CD000804000900548001F016841F0805101608C
:100CE000006800F08050009008BD000044380240C9
:100CF000002809DB00F01F0201219140400980001B
:100D000000F1E020C0F8001170470000F0B40E4B75
:100D10001B680C46C3F30223C3F10705042D00D959
:100D20000425191D072901D2002300E0DB1E01263E
:100D300006FA05F1491E214099409E40761E164054
:100D40003143F0BC03F052B90CED00E0064900F06D
:100D5000070208684FF6FF03184040EA0220034AE2
:100D600010430860704700000CED00E00000FA0539
:100D700070470068416200207047F0B50368586A08
:100D800039B19C6A4FF4827600EB144400204D1E6A
:100D90000AE040EA024098620FE006EB8007DF5964
:100DA000401C04EB1744C0B2A842F6D344EA024008
:100DB0004FF4807202EB810158500020F0BDD0F852
:100DC000E00402F061B801EBC10200EB8202D0F84E
:100DD000E004126A01F0B6BF01EBC10200EB82022F
:100DE000D0F8E004D2F8602202F007B8D0F8E004AE
:100DF00002F04CB80A0601F00F0101EBC10100EB53
:100E0000810101D5143101E001F51571006802F08E
:100E100025BF70B504460B0601F00F0000EBC001C2
:100E200004EB81014FF001024FF0000502D54A7535
:100E3000143103E081F8555201F51571087094F8EA
:100E40009404012808D084F89424206802F024FC3B
:100E500084F89454002070BD022070BD70B5044623
:100E600001F00F002279904201D9012070BD0B06DC
:100E700001F00F0101EBC10104EB81014FF0010210
:100E80004FF0000502D54A75143103E081F8555240
:100E900001F515718D70087094F89404012808D03C
:100EA00084F89424206802F069FD84F894540020AA
:100EB00070BD022070BD01F00F0101EBC10100EB1C
:100EC0008100D0F8680270472DE9F04104460F0612
:100ED00001F00F0000EBC00104EB81014FF00106AF
:100EE0004FF0000502D54E75143103E081F85552DC
:100EF00001F5157108708A600B714A7802B1488358
:100F0000022B00D14D7194F89404012809D084F883
:100F10009464206802F012FB284684F89454BDE8DB
:100F2000F0810220FBE710B501F00F0404EBC401CF
:100F300000EB8101C1E998230023C1F8683281F8F0
:100F4000553281F85442837901F51571012B00D196
:100F5000CA618279006802F069FD002010BD70B599
:100F600004460D4601F00F002179884201D9012085
:100F700070BD29064FF000064FF0010206D500EBC8
:100F8000C00104EB81014A75143107E005EBC5018E
:100F900004EB810181F8556201F515718A700870C2
:100FA00094F89404012807D084F89424206802F06F
:100FB00011FD280702D007E0022070BDA17904F2DC
:100FC0009C42206802F0AEFC84F89464002070BD5E
:100FD00010B501F00F0404EBC40100EB8101C1E97D
:100FE000082300238B6201234B7501F8144F83798A
:100FF000012B00D1CA618279006802F017FD002040
:1010000010BD00002DE9FC5F05680446284602F08B
:10101000C1FE00287DD1206802F0E8FE002878D0CB
:10102000D5F80808C0F30D20C4F8D404206802F0F5
:10103000DDFE800704D52068416901F002014161AD
:10104000206802F0D3FEC10604F29C40009034D523
:101050002068816921F0100181612F6A07F00F007B
:1010600000EBC00004EB8006C7F3434006F515769D
:10107000022802D0062811D01AE047F6F070074285
:1010800016D0C7F30A1217462846F16802F0B2FEDE
:10109000F0683844F0607069384408E00822284657
:1010A000009902F0A7FE7069C7F30A110844706145
:1010B0002068816941F010018161206802F096FE8C
:1010C00000034FF0080B4FF0000A4FF001097CD5E8
:1010D0000026206802F069FE074674E0F80770D029
:1010E000F1B2206802F07AFE8046C00707D005EB17
:1010F0004611C1F8089B3146204601F0D5F85FEA59
:10110000087024D505EB4611C1F808BB2068016CB6
:1011100000E023E200EB46100191D0F8082BFB4BD6
:10112000994205D9110403D54FF40041C0F8081BBA
:10113000204600F0F3FAF5490198884207D9A079D2
:10114000012804D120680121009A02F0EBFB5FEA3C
:10115000C86004D505EB46111020C1F8080B5FEA02
:1011600088701DD56869000605D5D5F8040840F4D7
:101170008061C5F8041806EBC60004EB800090F807
:10118000571200F51570012905D180F803A0F1B2BE
:10119000204600F0E9F905EB46110220C1F8080BE2
:1011A0005FEA886004D505EB46102021C0F8081BD3
:1011B0005FEA884005D505EB46104FF40051C0F8B2
:1011C000081B7F08761C002F88D1206802F00EFED5
:1011D00040036ED5206802F0E1FD0746002666E078
:1011E000F80762D0F1B2206802F0E6FD8046C00741
:1011F00023D006F00F01D5F8342809FA01F18A430B
:10120000C5F8342805EB4611C1F80899A0790128E2
:101210000FD106EBC60004EB8000D0E90721114492
:10122000016236B9606A20B920680121009A02F093
:1012300079FBF1B22046FFF7C6FD5FEA087003D5DF
:1012400005EB4611C1F808B95FEAC86004D505EBA3
:1012500046111020C1F808095FEA486004D505EB83
:1012600046104021C0F808195FEA887016D531464B
:10127000284602F064FD06EBC60004EB8000C17D49
:101280001430012905D180F803A0F1B2204600F006
:1012900067F905EB46110220C1F808095FEA08600A
:1012A00003D53146204601F065F87F08761C002FF3
:1012B00096D1206802F09AFD002811DAD5F80408CA
:1012C00020F00101C5F8041894F8CC0401282BD0B3
:1012D000204600F008FA2068416901F000414161B0
:1012E000206802F083FD00050BD5D5F80808C0077B
:1012F00002D0204600F03AFA2068416901F400610A
:101300004161206802F072FDC00467D5D5F8040879
:1013100020F00100C5F804081021206802F00FFD3C
:1013200000214FF67F3220E084F8CCA40021204633
:10133000FFF71EFDCFE700BF05EB4110C0F80829FD
:10134000D0F8003923F40013C0F80039C0F8082B96
:10135000D0F8003B23F40013C0F8003BD0F8003B6A
:1013600043F00063C0F8003B491C20798842E3D871
:10137000D5F81C0840F00111C5F81C18E07B0028C6
:1013800028460DD0D0F8840840F00B01C5F8841829
:10139000D5F8440840F00B012846C5F844180DE084
:1013A000D0F8140842F22B010843C5F81408D5F808
:1013B000100840F00B012846C5F81018D0F80008B6
:1013C00020F4FE61C5F80018A1792068009A02F0A7
:1013D000A9FA2068416901F480514161206802F056
:1013E00005FD800415D5206802F0E8F8206802F0B9
:1013F000C4FCE07100F06CFA0146E279206802F06A
:1014000057FD204600F05CF92068416901F4005165
:101410004161206802F0EAFC000707D5204600F091
:1014200066F92068416901F008014161206802F015
:10143000DDFC000616D5A86920F08001A96101260F
:101440000DE000BF06EBC60004EB800090F85702E9
:10145000012803D1F1B22046FFF7CCFC761C20799D
:10146000B042EFD8206802F0C1FCC0021FD50126AF
:101470004F4614E005EB4610D0F8001906EBC60005
:1014800004EB8002107E012808D1002906DAF0B2B0
:1014900040F08001D7752046FFF7ACFC761C207920
:1014A000B042E7D82068416901F4801141612068A9
:1014B00002F09CFC800234D501204A4629E000BF9E
:1014C00005EB4011D1F8001B00EBC00304EB8303D4
:1014D00093F85862012E1BD1002919DA94F8D464CC
:1014E00001F4803106F00106B14211D183F8572290
:1014F000A96941F08003AB616969090608D4D5F890
:10150000040840F40070C5F8040805E00A30544FA0
:10151000401C21798142D3D82068416901F400112F
:101520004161206802F062FC400007D52046FFF7C9
:1015300046FC2068416901F080414161206802F069
:1015400055FC40070AD520684568680702D5204643
:10155000FFF74CFC2068416829434160BDE8FC9FCF
:10156000D0F8E00401F0E5BCD0F8E00401F0F5BCEF
:10157000F8B5040005D094F895042668002510B14C
:1015800006E00120F8BD84F89454204600F056F897
:10159000032084F89504B6F1A04F00D1A57120680E
:1015A00002F0BAF9207C8DF8000094E80F0002F0F8
:1015B00013F80226B8BB0021206802F03AFC90BB69
:1015C000002001270DE000BF00EBC00104EB81010A
:1015D0004F750875C8850D76CD610D62401CC0B28F
:1015E0004D6221798142EFD8002011E000EBC0016B
:1015F00004EB810181F8555281F8540281F8585268
:10160000C1F85C52C1F86052401CC0B2C1F86452CB
:1016100021798142EAD8207C8DF8000094E80F00FF
:1016200002F0BCF810B184F89564AAE7657484F8F8
:101630009574206802F0A4F80020F8BD10B586B0BB
:10164000044614216846FEF7FDFD2068B0F1A04F66
:101650002FD119480021026842F00102026000689F
:1016600000F0010005904FF4C05000900220CDE939
:101670000101032003900A20049069460F48FEF7F9
:101680001BFF0D48001D016841F0800101600A4800
:101690001430016841F4804101600068002200F4C8
:1016A0008040059011464320FFF730FB4320FFF7B1
:1016B0001FFB06B010BD00003038024000000240A1
:1016C00070B50446C0790125022801D0FEF749FE15
:1016D0002946D4F8E00401F0AEFCD4F8E004BDE8FB
:1016E000704001F063BCD0F8E00401F08DBCD0F88C
:1016F000E00401F093BC10B5044690F8940401286E
:101700000AD0012084F894046174206802F0BFFBC1
:10171000002084F8940410BD022010BDD0F8E0240D
:1017200000F29C41104601F092BC10B504460068DE
:1017300094F89414012909D0012184F89414C16803
:10174000490609D5617B012902D005E0022010BDC0
:10175000816B41F480318163206802F0CEFA206809
:1017600002F000F8002084F8940410BD10B504467F
:10177000D0F8E00401F0ADFC2068D0F8001E41F084
:101780000101C0F8001EE07A002804D00248016878
:1017900041F00601016010BD10ED00E02DE9F047B9
:1017A0000E46050065D0DFF81481D8F80000F7B2C6
:1017B00000F00700B04207D288F80070D8F80000A7
:1017C00000F00700B04254D128683D4C810712D583
:1017D000400703D5206840F4E050206028780007D7
:1017E00003D5206840F4604020602068A96820F09C
:1017F000F000084320602878C0072DD03049686881
:101800000839012812D0022813D0032811D0096802
:10181000890700292DDA216821F0030101432160A5
:10182000FEF748FF814641F2883A0EE009688903D5
:10183000EFE709688901ECE7FEF73CFFA0EB09013F
:10184000514502D90320BDE8F0872068696800F09F
:101850000C00B0EB810FEFD1D8F80010404601F03A
:101860000701B14207D90770006800F00700B042D5
:1018700001D00120E7E72878400705D52068E9680E
:1018800020F4E050084320602878000706D520683F
:10189000296920F4604040EAC100206000F02EF881
:1018A0002168084AC1F30311515CC8400649086029
:1018B00006480068FFF7E4F90020C4E7003C024056
:1018C00008380240604600087000002068000020D0
:1018D0000148006870470000700000200448054976
:1018E00000680968044AC1F38221515CC84070470E
:1018F000700000200838024070460008154810B5F6
:10190000006810F00C02144813D01449042A0FD0B8
:10191000082A0ED10F4C241F2268236802F03F02D0
:101920005B0207D52068C0F38810A0FB010106E028
:10193000084610BD2168C1F38811A1FB00010023F6
:10194000FEF748FC2168C1F30141491C4900B0FB86
:10195000F1F010BD083802400024F40040787D0109
:101960002DE9F84F04006ED02078DFF84C93C007C3
:10197000A9F104054AD009F104000168C1F381010D
:10198000012908D00068C0F3810002280AD1D9F8E3
:101990000000400206D52868800337D5606800281B
:1019A000E1D033E06068B0F5803F10D0B0F5A02FF3
:1019B000286810D020F480302860286820F4802027
:1019C00028606068A8B1FEF775FE06460DE028683D
:1019D00040F48030F4E740F480202860F7E700BF4F
:1019E000FEF768FE801B642873D828688003F7D54B
:1019F0000CE0FEF75FFE064605E000BFFEF75AFE6C
:101A0000801B6428F0D828688003F7D42078DFF89A
:101A1000AC8280074FF0000A3ED5A748001D016840
:101A200011F00C0F08D00068C0F3810002280BD120
:101A3000D9F80000400207D42868800716D5E0686E
:101A4000012800D112E033E1E068B8B10120C8F804
:101A50000000FEF72FFE064605E000BFFEF72AFE57
:101A6000801B0228C0D828688007F7D5286821691C
:101A700020F0F80040EAC10028600DE0C8F800A09E
:101A8000FEF718FE064604E0FEF714FE801B02284F
:101A90001FD828688007F7D42078000722D5864F02
:101AA00087486169703771B101210160FEF702FE5C
:101AB000064604E0FEF7FEFD801B022809D83868C0
:101AC0008007F7D50EE0C0F800A0FEF7F3FD06464C
:101AD00005E082E0FEF7EEFD801B02287DD8386825
:101AE0008007F7D42078400768D5DFF8CCB100270D
:101AF0000BF13C0BDBF80000C0000BD4DBF800104E
:101B000041F08051CBF80010DBF80000012700F015
:101B1000805000906B4E3068C00510D4306840F49F
:101B200080703060FEF7C6FD009005E0FEF7C2FD54
:101B30000099401A022850D83068C005F6D55E4E8C
:101B4000A0686C3601280FD00528306810D020F02E
:101B500001003060306820F004003060A068B8B147
:101B6000FEF7A8FD00900FE0306840F00100F4E7B8
:101B700040F004003060F7E7FEF79CFD0099411A41
:101B800041F28830814266D830688007F4D50EE093
:101B9000FEF790FD009007E0FEF78CFD0099411ADA
:101BA00041F28830814256D830688007F4D42FB192
:101BB000DBF8001021F08051CBF80010A069C8B309
:101BC0003D49091D0968C1F3810102294AD0022853
:101BD000504607D0C8F8600000E03CE0FEF76AFD20
:101BE00004463BE04746C8F86000FEF763FD064642
:101BF00005E000BFFEF75EFD801B02282BD8286899
:101C00008001F7D4D4E907010843A16A2E4A4908A4
:101C100002EB0141626A41EA8211084394F82C10F8
:101C200040EA0161C9F8001001203866FEF742FD64
:101C3000044606E03EE000BFFEF73CFD001B022824
:101C400009D828688001F7D534E000BFFEF732FDDF
:101C5000001B022802D90320BDE8F88F2868800104
:101C6000F4D427E00128F7D0D9F80000E26900F4A5
:101C7000800191421CD1226A00F03F01914217D1AC
:101C800047F6C071626A0140B1EB821F10D1A26AAF
:101C90004FF0FF3300F4403103EB5202B1EB024F3F
:101CA00006D194F82C1000F07060B0EB016F01D0F9
:101CB0000120D1E70020CFE704380240000047426E
:101CC000800E4742007000400000FFFF10B5401E2C
:101CD000B0F1807F01D3012010BD4FF0E02460619E
:101CE0000F21601702F082F90020A0610720206117
:101CF000002010BDFEE7000030B585B0022828D1D5
:101D00001548FEF7DDFC14216846FEF79BFA4020DB
:101D10000090112001900020029003200F4D0390AD
:101D200069462846FEF7C8FB0024002240212846C9
:101D3000FEF7BAFC0020FEF717FB012240212846DF
:101D4000FEF7B2FC641CE4B2082CEED30248FEF7A6
:101D5000D1FC05B030BD000010010020000402409D
:101D600001684A69D24352050FD46FF480624A6118
:101D7000002140F8301F202242738173026942F033
:101D800004020261017301207047002070470000C7
:101D90002DE9F84F0446C06A1E4693460D46216859
:101DA0000A6842F480620A60082807D0012805D03A
:101DB00010F5803F02D0206B112804D12068016803
:101DC00041F4807101604FF001195B4600224946E1
:101DD0002046009600F0D2F84FF4007840B1206819
:101DE0000068C00501D5C4F840800320BDE8F88F25
:101DF0002069DFF884A0B0F5804F0FD0062021685D
:101E000000EAD51747F0F000086133465A460AF158
:101E10000601204600F0FAF858BB03E0E8B240F0B3
:101E200001001CE02168E8B2086133465A46514679
:101E3000204600F0EBF8E0B9206841698169009123
:101E4000016841F4807101605B46002249462046EA
:101E5000009600F093F80028C1D147F0F100216806
:101E6000086133465A465146204600F0CFF8002814
:101E7000BCD00120BAE70000020001002DE9F843C0
:101E8000044600680D46DDE9089701689846164645
:101E900041F4807101604B4600224FF00111204651
:101EA000009700F06BF848B120680068C00502D5C3
:101EB0004FF4007020640320BDE8F883216805F02A
:101EC000FE0008613B464A461549204600F09EF850
:101ED00088B920684169806900903A4649462046A1
:101EE00000F02AF948B1206C042804D12068016868
:101EF00041F4007101600120DEE7F5B2B8F1010F95
:101F000009D02168300A08613A464946204600F067
:101F100013F90028E7D1206805610020CCE7000014
:101F20000200010070B516460D4604461EE020462C
:101F3000FFF716FF08B1012070BD681C16D0FEF730
:101F4000B9FB801BA84200D885B920684069C0430E
:101F500040070BD5002044F8300F20216173A07397
:101F6000216941F0200121612073E4E72068406984
:101F7000C0434007DBD4002070BD00002DE9F047CE
:101F8000984617460D460446C1F30746DDF82090F3
:101F90002AE000BFB8F1FF3F26D0FEF78BFBA0EB95
:101FA0000901414502D8B8F1000F1DD12068012E6A
:101FB00016D0806925EA00000004000C12D0002031
:101FC000B84211D1002044F8300F20216173A07372
:101FD000216941F02001216120730120BDE8F087D3
:101FE0004069E7E70120EBE72068012E0AD080690D
:101FF00025EA00000004000C06D00020B842C9D039
:102000000020EBE74069F3E70120F7E72DE9F0470F
:10201000984616460D4604464FF000094FF0200A38
:10202000C1F3074723E020684069C043400515D449
:102030002068016841F40071016021686FF48060DC
:102040004861C4F8309084F83DA084F83E90216C3B
:1020500041F00401216484F83C9021E0701C06D01A
:10206000FEF728FBA0EB0800B04203D816B1012F01
:102070001FD021E02068012F15D0806925EA0000DB
:102080000004000C18D000BF44F8309F84F80DA065
:1020900084F80E90216941F02001216184F80C90B0
:1020A0000120BDE8F087406925EA00000004000C2B
:1020B000EAD12068406901E02068806925EA0000D3
:1020C0000004000CAFD1ECE72DE9F041002590466B
:1020D0000E460446202728E04069C043C0060CD4C1
:1020E00054F8301B6FF01000486144F810596777BE
:1020F000A577206A2062257714E0FEF7DBFAA0EBD3
:102100000800B04200D886B920684069C043400644
:102110000BD544F8305F6773A573206940F0200049
:10212000206125730120BDE8F08120684169C94321
:102130004906D1D40020F6E770B516460D46044690
:102140001EE02046FFF70CFE08B1012070BD681CA0
:1021500016D0FEF7AFFA801BA84200D885B92068D8
:102160004069C04300060BD5002044F8300F202101
:102170006173A073216941F0200121612073E4E7BC
:1021800020684069C0430006DBD4002070BD000019
:10219000F0B500230A24302537261F4611E000BF82
:1021A000B4EB107F02D905EB107C01E006EB107C4C
:1021B00001F813C001EB430C00015B1C8CF80170AB
:1021C000DBB29342ECD3F0BD0D4808B5016841F095
:1021D00080010160016801F080010091016841F017
:1021E00001010160016801F001010091016841F005
:1021F00002010160006800F00200009008BD0000CC
:10220000303802400D4810B50B4901600C4941605F
:1022100000214FF480428160C0E903124161816175
:10222000C1610162FEF766FA002803D0BDE81040E4
:10223000FEF797B810BD00000054004010010020C8
:10224000A086010010B500220F49104800F055FD8E
:1022500008B1FEF786F80E490C4800F066FF08B199
:10226000FEF77FF80B49094800F0F6FA08B1FEF7CF
:1022700078F8064800F0DCFF002803D0BDE81040E5
:10228000FEF76FB810BD00000000002064010020C0
:10229000CC00002050000020FEE7FEE70148FEF7DA
:1022A000B1BE0000601800202DE9F04103680D4622
:1022B00004461E6C03EB4511D1F8080B94F806E0B8
:1022C0004FF400474FF0200C04F29C42BEF1010F86
:1022D00009D0DFF898E0764539D1020432D500BF45
:1022E000C1F8087B3FE0224B5FEA007E04D59E42A6
:1022F00039D90004F4D436E05FEA806E02D5C1F823
:1023000008CB30E010F0280F2DD19E4201D90004F7
:10231000E6D405EBC50004EB8000D1F8101BD0F823
:102320007432C1F31201591AC0F8681200F5157021
:10233000ADB903691BB1C2681144C1600FE001214E
:1023400020680AE080060AD5C1F808CB07E035B955
:10235000D4F8640218B90021184601F0E3FAE9B292
:102360002046FEF739FD0020BDE8F0810A31544FC8
:102370000A30544F2DE9F84F0E4601EBC60100EB31
:10238000810481460568D4E909101434884202D9D1
:102390000120BDE8F88F081AA168814200D20846E2
:1023A000C01C870805EB46181BE000BFA0EB010A24
:1023B000A068504500D282460AF10300870899F8C8
:1023C000060000901FFA8AF3F2B22846E16801F095
:1023D000E3FDE16801EB0A00E060616901EB0A00DE
:1023E0006061D8F8180980B2B84205D3D4E9040175
:1023F000814201D20028D9D1D4E90401884208D809
:1024000006F00F0101208840D5F834188143C5F843
:1024100034180020BDE7704770470178407841EAE2
:1024200000207047FEF70ABC30B593B030216846F3
:10243000FDF708FF14210CA8FDF704FF1C48002538
:10244000016841F080510160006800F080501190F7
:102450001848016841F4404101600068022400F41A
:102460004040119001200090000401908001CDE9CE
:10247000064019200890C020CDE9090404200B90E3
:102480006846FFF76DFA08B172B6FEE70CA90F2097
:1024900081E831004FF48050CDE90F0503210CA8ED
:1024A000FFF77CF9002801D072B6FEE713B030BD0B
:1024B00040380240007000400248016841F4700159
:1024C0000160704788ED00E02DE9F0410C46D0F83E
:1024D000D412D0F8C82200EB8101D1F8C01229B380
:1024E00004F00F0606EB860300EB83050027AB69BB
:1024F0004BB106EBC60602EB8602D269B3FBF2F6DD
:1025000002FB1632A2B1C1F81472D0F8D42200EB4B
:102510008200D0F8C40203692BB1D1F80802224628
:1025200001F5047198470020BDE8F0810320FBE726
:1025300000231A462146AF6100F0D8FDF3E770B5DD
:102540000546D0F8D40205EB8000D0F8C04294B123
:10255000284600F0AAFCC4F80C02D5F8D412D4F82E
:10256000040205EB8101D1F8C412CA6804F50371B5
:102570009047002070BD032070BD000070B5224D53
:102580000446297800F0D5FB2878002600F00F00DB
:1025900000EB800004EB800086846978204600F020
:1025A000C8FB687800F00F0000EB800004EB8000AF
:1025B000A0F86461A978204600F0BBFBA87800F081
:1025C0000F0000EB800004EB80008684C684D4F802
:1025D000D40204EB8000D0F8C01299B1D0F8C40244
:1025E00040688047D4F8D40204EB8000D0F8C002E1
:1025F00000F09FFFD4F8D40204EB8000C0F8C06262
:10260000C4F8BC62002070BD7800002010B5D0F87E
:10261000D41200EB8100D0F8C04284B1D0F8C412CB
:1026200059B194F80002FF2807D08B6894F8012272
:1026300021469847FF2084F80002002010BD0320A7
:1026400010BD00000A210180004870477C00002076
:1026500070B5064682210C4800F0FBFA05460121C0
:10266000094800F0F6FA04468121074800F0F1FA23
:102670000DB11021A971402104B1A18000B1818068
:1026800043203080004870BD8800002070B50646A9
:1026900082210D4800F0DDFA054601210A4800F0CC
:1026A000D8FA04468121084800F0D3FA0DB1102170
:1026B000A9714FF4007104B1A18000B18180432061
:1026C0003080014870BD00008800002070B50646CB
:1026D00082210C4800F0BDFA05460121094800F0AE
:1026E000B8FA04468121074800F0B3FA0DB1102171
:1026F000A971402104B1A18000B1818043203080C4
:10270000004870BD880000202DE9F04704464FF4D2
:102710000775284600F00EFF06004FF0000863D052
:102720002946FDF78FFDD4F8D4023C4D04EB800020
:102730004FF01009C0F8C062C4F8BC62207C4FF4AE
:10274000007A0127F0B3402302222978204600F0C6
:1027500018FC2878402300F00F0000EB800004EB09
:102760008000878402226978204600F00AFC68789D
:10277000082300F00F0000EB800004EB8000032230
:10278000A0F86471A978204601F00F0101EB8101E6
:1027900004EB8101A1F82690A97800F0F2FBA8785B
:1027A00000F00F0000EB800004EB80008784C6F887
:1027B0000482D4F8D402474604EB8000D0F8C40267
:1027C000006800E018E006F5017680473761776120
:1027D00032687AB1207CF8B140236978204600F055
:1027E000DCFB0020BDE8F087D4F8D41204EB8101B3
:1027F000C1F8C0820220F5E753460222297820461C
:1028000000F0BFFB2878534600F00F0000EB80007B
:1028100004EB80008784A5E75346DEE778000020BC
:1028200010B5D0F8D41200EB8101D1F8C01259B123
:10283000027C084C002AD1F8042207D0402361789A
:1028400000F0ABFB002010BD032010BD4FF400735F
:10285000F5E700007800002039B1D0F8D42200EB71
:102860008200C0F8C4120020704703207047D0F8DF
:10287000D42200EB8200D0F8C00218B1C0F80412D4
:102880000020704703207047D0F8D43200EB83005B
:10289000D0F8C00228B1C0F81022C0F808120020F9
:1028A0007047032070472DE9FC410646D0F8D4025A
:1028B0000C4606EB80000021D0F8C0728DF80010A5
:1028C000ADF804100D4637B1217811F060022FD019
:1028D000202A4BD102E00320BDE8FC81E288F2B15E
:1028E00009060DD5D0F8C40263783946D0F808C07F
:1028F0001846E047E288072A00D9072239462DE02A
:10290000607887F80002E088402800D34020C2B2F7
:1029100087F801223946304600F081F82BE0D0F8E4
:10292000C40263780022866821461846B04722E038
:10293000607830B101281ED00A2809D00B2815D1A3
:1029400010E096F89C02032810D1022201A905E0AC
:1029500096F89C02032809D101226946304600F00E
:1029600078F808E096F89C02032804D02146304607
:1029700000F04AF803252846AEE7000010B5D0F86D
:10298000D41200EB8101D1F8C02201211AB1D2F892
:10299000143213B116E0032010BD0121C2F8141245
:1029A0000949D2F81032097801F00F0404EB8404CD
:1029B00000EB8404A361D2F81032D2F8082200F0B0
:1029C00095FB0021084610BD7800002010B5D0F816
:1029D000B82200245268904700B10324204610BD5D
:1029E0000020704700207047134610B50A460021AA
:1029F00000F0D3FA002010BD134610B50A4600219E
:102A000000F074FB002010BD10B50446802100F0DA
:102A10004EFB2046BDE81040002100F048BB10B539
:102A20000323C0F89432C0F858211346C0F85C2143
:102A30000A46002100F0B1FA002010BD10B50521B2
:102A4000C0F8941200231A46194600F0A6FA002096
:102A500010BD10B50223C0F8943282611346C261E2
:102A60000A46002100F042FB002010BD10B50421F1
:102A7000C0F8941200231A46194600F037FB0020D4
:102A800010BD000010B50A46024903A000F005F988
:102A9000004810BD4004002043444320436F6E664D
:102AA000696700001220088000487047200000205D
:102AB00010B50A46024903A000F0EFF8004810BD27
:102AC0004004002043444320496E7465726661638C
:102AD0006500000004200880004870471C000020AA
:102AE00010B50A46024903A000F0D7F8004810BD0F
:102AF0004004002053544D6963726F656C656374C4
:102B0000726F6E696373000010B50A46024903A034
:102B100000F0C3F8004810BD4004002053544D336A
:102B200032205669727475616C20436F6D506F72FC
:102B30007400000010B51A2008800A480168001DC2
:102B40000468001D0068081809D008220649FFF72C
:102B50001FFB0549042210312046FFF719FB0248EC
:102B6000801E10BD107AFF1F36000020F8B5044605
:102B70000020ADF8000048880D46010A08295FD200
:102B8000DFE801F05E0409175E5E3C45D4F8B4123C
:102B9000207C0A6819E0207C02260028D4F8B802BC
:102BA00005D0C16A684688470146467039E0816AA7
:102BB000F8E7C0B2062843D2DFE800F0030A101499
:102BC000181CD4F8B402426805E0694690471CE03E
:102BD000D4F8B402826892B3207CF6E7D4F8B40249
:102BE000C268F8E7D4F8B4020269F4E7D4F8B40292
:102BF0004269F0E7D4F8B4028269ECE7207CF0B9CE
:102C0000D4F8B802416B68468847014609E0207C49
:102C1000A8B9D4F8B802016B684688470146072076
:102C20004870EA888AB1BDF8000040B1824200D9FC
:102C30000246ADF800202046FFF70BFFF8BDFFE786
:102C400029462046FFF7E0FEF8E72046FFF70EFF93
:102C5000F4E778B50E4642880178002504468A429A
:102C600012D9ADF800100AE0694600F00FF841787B
:102C7000052904D181780546B14205D00025618837
:102C8000BDF800209142EFD8284678BD0A88037825
:102C90001A440A8001780844704770B50023002860
:102CA0001ED00025044602E06D1CEDB2641C26789F
:102CB000002EF9D1022404EB450414801278CA5482
:102CC0005B1C0322CA5400245B1C06E0CA545B1C34
:102CD000DAB28C54521CD3B2401C0278002AF5D1CF
:102CE00070BD01004FF0000004D0012901D002297D
:102CF00001D0032070470120704778B10023C0F84D
:102D0000B832C0F8C432C0F8D03209B1C0F8B41239
:102D1000012180F89C12027000F0CCB803207047AB
:102D200010B5D0F8C802FEF799F8BDE81040FFF7DB
:102D3000D8BF10B5D0F8C802FEF76BF8BDE8104058
:102D4000FFF7CFBF2DE9F04117460446002521B11A
:102D500094F89C02032842D04CE0D4F8941204F179
:102D60001400022935D1D0E902639E4206D9F21A35
:102D7000826039462046FFF73FFE0FE0B34214D190
:102D80004068984211D3D4F8981288420DD200229C
:102D900011462046FFF730FEC4F8985200231A4629
:102DA0001946204600F0F9F813E094F89C02032835
:102DB00008D1D4F8B802C16821B1C4F8D452C168AE
:102DC000204688478021204600F071F92046FFF711
:102DD00035FE94F8A00268B184F8A0520AE0D4F855
:102DE000B802426932B1C4F8D452426920469047D1
:102DF000002800D10020BDE8F08170B513460446DC
:102E0000002221B194F89C02032830D03AE0D4F893
:102E1000941204F5AA70032934D1D0E902518D42ED
:102E20000AD96A1A82600846824200D302461946CD
:102E30002046FFF7D9FD25E094F8AA0210F01F0004
:102E400003D0012802D0022800D0002294F89C026E
:102E5000032808D1D4F8B802016921B1C4F8D422FA
:102E60000169204688472046FFF700FE0AE0D4F8B3
:102E7000B802836933B1C4F8D422826920469047EE
:102E8000002800D1002070BD0020704710B500243C
:102E9000012180F89C12D0F8B82222B15268017941
:102EA000904700B10324204610BDD0F8C802FEF7B9
:102EB00002B8000010B5017839BB15490222C1F8EB
:102EC000E004C0F8C8124FF0A04008600420087168
:102ED000CA71002088714A728872C8720873887338
:102EE000C8730846FEF744FB08B1FDF73AFA8021A3
:102EF0000748FDF73EFF402200210548FDF73DFF52
:102F0000802201210248FDF738FF002010BD00009B
:102F1000601800200A0601F07F01D0F8C80201EB1A
:102F2000C10100EB810001D5807D704790F8560209
:102F3000704710B5D0F8D42200EB8202D2F8B82244
:102F400022B190F89C32032B02D004E0032010BD84
:102F5000126A02B19047002010BD10B5D0F8D422FB
:102F600000EB8202D2F8B82222B190F89C32032BF7
:102F700002D004E0032010BD526A02B19047002045
:102F800010BD10B51C461346D0F8C8022246FDF706
:102F90009BFFBDE81040FFF7A4BE10B5D0F8C802F3
:102FA000FDF7C1FFBDE81040FFF79BBE2DE9F041E2
:102FB00000260125044680F89C52C4F8946266609D
:102FC000C4F8A46280F8A062D0F8B80230B14268B8
:102FD00022B100212046904700B103260022402361
:102FE00011462046FFF7CDFF4027A4F864513B4629
:102FF000002280212046C4F86071FFF7C2FFA5843B
:1030000030462762BDE8F08190F89C12042903D174
:1030100090F89D1280F89C120020704710B590F82F
:103020009C12032905D1D0F8B81211B1C96901B1B8
:103030008847002010BD01740020704710B5D0F8FB
:10304000C802FEF758FBBDE81040FFF74ABE70B556
:10305000044600F2AA20054600F051F80120C4F809
:103060009402B4F8B002C4F8980294F8AA0210F0DE
:103070001F010AD001290ED0022912D000F08001D0
:103080002046BDE8704000F012B829462046BDE851
:10309000704000F0CFB829462046BDE8704000F0EF
:1030A0000FBA29462046BDE8704000F059B910B566
:1030B000D0F8C802FDF753FFBDE81040FFF711BE7E
:1030C00010B5D0F8C802FEF730FBBDE81040FFF79E
:1030D00008BE90F89C12042903D090F89C1280F846
:1030E0009D12042180F89C120020704710B5D0F882
:1030F000C802FDF76DFFBDE81040FFF7F2BD70B5E7
:10310000054611F8010B2870087868704C1C2046A1
:10311000FFF783F96880A41C2046FFF77EF9A8809A
:10312000A01CFFF77AF9E88070BD38B5044600208E
:10313000ADF80000A1B1C4F8B812D4F8D40204EB81
:103140008000D0F8B802C16A19B168468847C4F84F
:10315000D002D4F8D802401CC4F8D802002038BDF0
:10316000032038BD02460020D2F8B832002B02D02E
:103170001B681046184770472DE9F04188462B4ED2
:103180008978002504463170012906D94146204638
:10319000FFF73AFC0320BDE8F08194F89C02022777
:1031A00002280CD003281DD041462046FFF72CFCF6
:1031B00031782046FFF70AFC03252846EBE789B360
:1031C00020466160FFF7CEFF050004D0414620464F
:1031D000FFF71AFC1DE02046FFF748FC032084F8A7
:1031E0009C02EAE7C1B1606888421BD0C1B22046A8
:1031F000FFF7ECFB317820466160FFF7B3FF050075
:1032000010D041462046FFF7FFFB21792046FFF70B
:10321000DDFB84F89C72D0E784F89C7220466160E4
:10322000FFF7D4FB2046FFF721FCC6E7740000201F
:10323000FFF746BF2DE9F0410A78002512F0600241
:103240000CD0202A01D0402A7DD1D0F8D42200EB26
:103250008202D2F8B8229268904731E04B7800227F
:1032600001260A2B6FD2DFE803F041666E586E0824
:10327000056E2D29FFF77AFC67E004468888D8B9E7
:10328000C888C8B94888802816D200F07F0794F80B
:103290009C02032810D084F89E7239462046FFF71E
:1032A000CDFE2046FFF7E2FB1FB1022084F89C020E
:1032B0004BE084F89C6248E0204644E0FFF75CFF66
:1032C000054642E0CB88012B3DD190F89C32012B82
:1032D00004D0022B02D0032B35D104E082600122FE
:1032E00000F1080116E00122011D13E090F89C2274
:1032F000012A03D0022A01D0032A24D1CA88022A33
:1033000021D1C660D0F8A41209B10321C160022204
:1033100000F10C01FFF79DFB17E04A88012A02D05B
:10332000022A03D00FE0C0F8A46216E08988090AD7
:1033300080F8A01211E090F89C32012B08D0022BEB
:1033400006D0032B04D0FFF75FFB2846BDE8F081D1
:1033500049880129F9D1C0F8A422FFF787FBF4E7D7
:103360002DE9F041054608780C790E464FF000082B
:1033700010F060000BD0202801D040286AD12146EF
:103380002846FFF72DFBFF2800D0D8B395E07078D2
:10339000C8B3012824D003285CD195F89C020228E8
:1033A00002D0032856D10CE0002C53D0802C51D0F1
:1033B00021462846FFF77BFE80212846FFF777FE4F
:1033C0007BE0708840B93CB1802C05D0C88818B922
:1033D00021462846FFF76BFE2846FFF747FB6CE0C7
:1033E00095F89C020228DFD0032863D1708880BB47
:1033F000600603D021462846FFF792FC2846FFF7D7
:1034000035FBBCE700E00AE0C5F8D402D5F8B80205
:103410008268F2B131462846904780464DE095F8E3
:103420009C020027022802D0032843D113E00CB1EC
:10343000802C3FD1200604F07F0000EB800005EBDC
:10344000800101D5143101E001F5AA7102220F605B
:103450002CE032E02EE0200604F00F0000EB8000AC
:1034600005EB800009D5808C20B304F07F0000EBD1
:10347000800005EB800614360AE0B0F86401C8B19C
:1034800004F07F0000EB800005EB800606F5AA76CD
:103490004CB1802C07D021462846FFF73BFD10B1E8
:1034A0000120306000E03760022231462846FFF7F5
:1034B000D0FA02E02846FFF7A7FA4046BDE8F081BF
:1034C00070B50546087800240E4610F0600003D061
:1034D000202801D0402827D195F89C02012803D04C
:1034E000022801D003281FD1B088C1B201291AD8FF
:1034F000C1B22846FFF776FAFF280CD058B9D5F8A4
:10350000B8128A683AB1C5F8D4028A6831462846AA
:103510009047044600E00324F088204307D1284662
:10352000FFF7A4FA03E031462846FFF76DFA20467C
:1035300070BD7047004870474016002070B50A788B
:10354000012302F00F054E78AB401B4CD0F81C58FD
:10355000012E17D045EA0343C0F81C3800EB421097
:10356000D0F8002B12040BD4D0F8002B0B8909796A
:10357000C3F30A031A4344EA81410A43C0F8002B0B
:10358000002070BD9BB21D43C0F81C5800EB4210D8
:10359000D0F800391B04F3D4D0F800390D8909792B
:1035A000C5F30A0589042B4341EA82510B432343A7
:1035B000C0F80039E4E7000000800010D0F80019DE
:1035C0006FF30A01C0F80019D0F8041841F48071B3
:1035D000C0F804180020704770B50D460446C2F3C9
:1035E000072104981E4601291BD0E06840F04000E6
:1035F000E060204600F032F8C6F307210029A16BF5
:1036000026D021F48031A163C5F30741012907D1F8
:10361000A16841F00601A160A16841F02001A1600C
:1036200070BDA16B21F48031A163E1680A4A1140A9
:10363000E160E16821F44011E160C0B2012803D1EA
:10364000E06840F48010E060204600F007F8DBE717
:1036500041F48031D7E70000BFFFBDFF08B500216E
:103660004FF070620091009B5B1C009393420CD85A
:103670000369002BF7DA0091016941F00101016152
:103680000099491C0091914201D9032008BD0169AC
:10369000C907F5D1002008BD30B54C780A78012360
:1036A00000EB4212012C2CD0D2F8004B002C0BDA8C
:1036B000D2F8004B44F00064C2F8004BD2F8004B43
:1036C00044F08044C2F8004BD0F83C580C7804F029
:1036D0000F0403FA04F425EA0444C0F83C48D0F887
:1036E0001C48097801F00F018B4024EA0341C0F81F
:1036F0001C18D2F8000B19490840C2F8000B002032
:1037000030BDD2F80049002C0BDAD2F8004944F061
:103710000064C2F80049D2F8004944F08044C2F87D
:103720000049D0F83C480D7805F00F0503FA05F57F
:10373000ADB2AC43C0F83C48D0F81C48097801F061
:103740000F018B4099B28C43C0F81C48D2F8000995
:1037500003490840C2F80009D1E700000078F3EF00
:10376000007833ECD0F8001E21F00301C0F8001EF1
:10377000D0F8041821F00201C0F8041800207047A6
:10378000D0F8001E21F00301C0F8001ED0F8041884
:1037900041F00201C0F80418002070472DE9F04FF5
:1037A00000250E46044617462846294604EB8002AB
:1037B000C2F80411401C0F28F8D3C3F307405FEA96
:1037C0000009204616D0806B20F40012A263A06B83
:1037D00040F40022A263084688462146C4F8000E41
:1037E000C7F30720012817D00846D1F8001841F088
:1037F000030118E0D0F8040840F00202C4F80428DD
:10380000A06B40F40012A263A06B20F40022A2631C
:10381000A06B20F48022DDE7300E0846D1F80018B6
:1038200001D041F00101C0F80018102100F087FA22
:1038300000B10125204600F066FA00B1012540469E
:10384000C4F81088C4F81488C4F81C8800214FF00C
:10385000006B4FF0904E4FF67F3AF2B215E000BF8A
:1038600004EB4113D3F800C9BCF1000F06DA11B123
:10387000C3F800E904E0C4F800B901E0C3F80009A6
:10388000C3F81009C3F808A9491C8A42E8D80021E6
:1038900015E000BF04EB4113D3F800CBBCF1000FDF
:1038A00006DA11B1C3F800EB04E0C4F800BB01E094
:1038B000C3F8000BC3F8100BC3F808AB491C8A42CD
:1038C000E8D8D4F8101821F48072C4F81028A06148
:1038D0006FF080406061C6F3074018B9A06940F0FE
:1038E0001000A061A0690A490843A061C7F307401E
:1038F00018B1A06940F00800A061B9F1010F03D12F
:10390000A06904490843A0612846BDE8F08F000083
:1039100000383C8004000040816821F00101816092
:103920000020704710B5036C134CA34203D9D0F8A4
:10393000003B002B1EDB0023C0F8103BD0F8103BEF
:1039400043F40023C0F8103BD0F8103B43F01803B9
:10395000C0F8103BD0F8103B43F0C043C0F8103B18
:10396000012907D1C0F8142BD0F8001B41F08021A9
:10397000C0F8001B002010BD0A30544F4A780B7865
:10398000012A00EB43100BD0D0F8002B22F40012D8
:10399000C0F8002B0979032914D0022912D017E0AE
:1039A000D0F8002922F40012C0F80029097903296F
:1039B00001D002290CD1D0F8001941F08051C0F893
:1039C000001905E0D0F8001B41F08051C0F8001B41
:1039D000002070470A784B78D1B200EB4110012BE0
:1039E00012D0D0F8001B002906DB2AB1D0F8001B4A
:1039F00021F08041C0F8001BD0F8001B41F40011F9
:103A0000C0F8001B00207047D0F80019002906DB21
:103A10002AB1D0F8001921F08041C0F80019D0F87F
:103A2000001941F40011C0F80019EBE7F8B50C7863
:103A30004F78894DE3B26FF0604600EB4313012FDE
:103A400029D0D3F8107B6FF31207C3F8107BD3F89B
:103A5000107B2F40C3F8107B002C0C697DD0002C0C
:103A60007CD08D682C44641EB4FBF5F4A4B265438D
:103A70000D62D3F8105B06EAC4442543C3F8105B1B
:103A8000D3F8104B0D6AC5F312052C43C3F8104B45
:103A9000012A7DD0C7E00F6927B3D3F810796FF3FF
:103AA0001207C3F81079D3F810792F40C3F81079B2
:103AB00044B30F698D682F447F1EB7FBF5F506EA06
:103AC000C545D3F810693543C3F81059D3F81059D8
:103AD0000E69C6F312063543C3F810590D79012D4E
:103AE0001CD027E0D3F810692E40C3F81069D3F832
:103AF000105945F40025C3F81059D3F810596FF345
:103B0000120515E00E698D68AE4200D90D61D0F83E
:103B1000105945F40026C0F81069D7E7D3F81059BA
:103B200025F0C045C3F81059D3F8105945F0005599
:103B3000C3F81059012A1AD000EB4413D3F80049F6
:103B400044F00444C3F800490C79012C32D00A69CE
:103B50007AB3D0F83428097801E040E052E001F06F
:103B60000F03012199400A43C0F8342871E0CA6963
:103B70001AB100EB4413C3F814290979012910D1B3
:103B8000D0F80818C90500EB4411D1F8002900E06D
:103B900045E002D442F0005201E042F08052C1F808
:103BA000002900EB4410D0F8001941F00441C0F89E
:103BB00000194EE0D0F80848E405D3F8004902D4D3
:103BC00044F0005401E044F08054C3F800490092EE
:103BD0000A8A93B20A78C96800F0DEF939E00CB1BC
:103BE0008C680C618C680C62D0F8105BC4F3120412
:103BF0002543C0F8105BD0F8104B44F40024C0F803
:103C0000104B45E7D3F8104B8D68C5F312052C43D4
:103C1000C3F8104BD3F8104B44F4002436E7CA68BD
:103C20000AB1C3F8142B097901290CD1D0F808087E
:103C3000C005D3F8000B02D440F0005001E040F082
:103C40008050C3F8000BD3F8000B40F00440C3F8D9
:103C5000000B0020F8BD0000FFFF07E038B5002290
:103C6000009213464D780A7842F2107400EB42122B
:103C7000012D19D0D2F8005B002D3CDAD2F8005BA0
:103C800045F00065C2F8005B0A7800EB4212D2F8FA
:103C9000005B45F08045C2F8005B009A521C009220
:103CA000A24221D9012326E0D2F80059002D22DAC0
:103CB000D2F8005945F00065C2F800590A7800EBC7
:103CC0004212D2F8005945F08045C2F80059009AD6
:103CD000521C0092A242E5D80A7800EB4212D2F8B8
:103CE0000029002AF3DB06E00A7800EB4212D2F842
:103CF000002B002AD1DB184638BD816841F0010154
:103D000081600020704708B500214FF0706200917B
:103D1000009B5B1C009393420AD80369002BF7DADF
:103D20000091102101610099491C0091914201D933
:103D3000032008BD0169C906F5D4002008BD18B5E7
:103D400000224FF070630092009C641C00949C421F
:103D50000CD80469002CF7DA0092202242EA811183
:103D600001610099491C0091994201D9032018BDB5
:103D700001698906F5D4002018BDD0F8080810F0B4
:103D8000060004D0022803D0062801D00F20704777
:103D900002207047406900F001007047D0F8181801
:103DA000D0F81C08084080B27047D0F81818D0F836
:103DB0001C080840000C704710B5D0F81038D0F837
:103DC000342801F00F0400EB4110E24002F0010240
:103DD000D0F8080943EAC212104010BD00EB4111AF
:103DE000D1F8081BD0F81408084070474169806971
:103DF0000840704730B503460846940802F00301B6
:103E0000002203F5805303E01D6840F8045B521C58
:103E1000A242F9D300290BD01C680022D50024FA55
:103E200005F3491E521C090400F8013B090CF5D1A9
:103E300030BD70B50446C068002520F0C040E06089
:103E4000012901D079B120E0E06840F00050E06045
:103E50000A20FCF789FA60690A3510F0010F10D1C9
:103E6000C82DF5D30DE0E06840F08040E0600A2006
:103E7000FCF77AFA60690A3510F0010F01D0C82DFD
:103E8000F5D3C82D01D0002070BD012070BDD0F841
:103E9000002822F4FE62C0F80028D0F800284FF471
:103EA000FE6303EA01110A43C0F8002800207047AE
:103EB000022A3ED1264A274B0A449A4201D20F21B8
:103EC00038E0254A254B0A449A4201D20E2131E0BE
:103ED000234A244B0A449A4201D20D212AE0224A65
:103EE000224B0A449A4201D20C2123E0204A214B62
:103EF0000A449A4201D20B211CE01F4A1F4B0A447C
:103F00009A4201D20A2115E01D4A1E4B0A449A42E8
:103F10000FD31D4A1D4B0A449A4201D2082109E0E1
:103F20001B4A11441B4A914201D2072102E006219B
:103F300000E00921C26822F47052C260C2684FF4E6
:103F4000705303EA81210A43C260002070470000D9
:103F5000405327FF00350C00401E1BFF40420F005E
:103F600000DC0BFF804F1200808CF9FE20D613007E
:103F700060B6E5FE60E3160000D3CEFE40771B007E
:103F8000C05BB3FEC091210000CA91FE20753800CD
:103F9000E05459FEE09C410010B5029C74B9DB1C52
:103FA0009C0800EB0230002300F5805004E000BFC5
:103FB00051F8042B02605B1CA342F9D3002010BD12
:103FC000FEE700000FB4084B10B504A902AA03983D
:103FD00000F02CF8044602A9002000F0C8F92046A1
:103FE00010BC5DF814FB00006F4300080907090EC0
:103FF000002804DB00F1E02080F80014704700F096
:104000000F0000F1E02080F8141D704702E008C89E
:10401000121F08C1002AFAD170477047002001E042
:1040200001C1121F002AFBD1704700002DE9FF4F8C
:104030008BB088460546002606E025280BD0DDE932
:104040000D1290476D1C761C28780028F5D10FB012
:104050003046BDE8F08F0024A146A2460122AE49B9
:1040600000E0044315F8013F203B02FA03F0084248
:10407000F7D128782A2810D06FF02F022878A0F1E5
:104080003001092915D809EB890102EB410144F0FF
:10409000020400EB01096D1CF0E758F8041B5FEA0D
:1040A000010903D544F40054C9F1000944F00204A5
:1040B0006D1C28782E2817D115F8010F44F0040440
:1040C0002A280ED06FF02F022878A0F1300109299C
:1040D0000AD80AEB8A0102EB410100EB010A6D1CD0
:1040E000F2E758F804AB6D1C28786C280FD006DC7A
:1040F0004C2817D068280DD06A2814D104E0742801
:1041000010D07A280FD10DE044F400140AE044F4F2
:10411000801401E044F440146978814202D104F52E
:1041200080146D1C6D1C2878692865D006DC002879
:104130008DD0632827D0642806D15DE06E2808D092
:1041400073282AD0752877D0DDE90D129047761CA8
:10415000E0E0C4F30250022809D003280DD0D8F8BB
:10416000001004280DD00E6008F10408D2E0D8F841
:104170000010F217C1E90062F6E7D8F800100E80CF
:10418000F2E70E70F0E718F8041B8DF8001000201D
:104190008DF80100EB46012003E058F804BB4FF016
:1041A000FF3061074FF0000701D40AE07F1C57453C
:1041B0000DDA8742FADB1BF807100029F6D106E07A
:1041C0007F1C8742FCDB1BF807100029F8D1DDE9D2
:1041D0000D23A9EB07008146214600F0B1F83044D9
:1041E000C61904E0DDE90D121BF8010B90477F1E94
:1041F000F8D22146484688E058F8040BC4F302512F
:104200004FF00A0B032900D100B2042900D140B2BB
:10421000002802DA40422D2102E0210505D52B219C
:104220008DF82410012104E006E0E10710D02021E0
:10423000F6E708AF089113E058F8040BC4F30251F5
:104240004FF00A0B032900D180B2042900D1C0B27B
:104250000021EEE75946FCF700F8303107F8011D60
:104260000028F7D1ADEB070000F1200B600702D565
:1042700024F4803401E04FF0010ADA4502DDAAEBB4
:104280000B0000E00020824600EB0B01089801447F
:10429000A9EB01000A90E00306D4DDE90D232146D5
:1042A0000A9800F04DF806444FF0000908E009A90B
:1042B00011F80900DDE90D12904709F10109761C9A
:1042C00008998945F3DBE0030CD5DDE90D23214690
:1042D0000A9800F035F8064404E0DDE90D123020BC
:1042E0009047761CBAF10001AAF1010AF5DC05E05D
:1042F000DDE90D1217F8010B9047761CBBF10001A8
:10430000ABF1010BF4DC0A982146DDE90D2300F046
:1043100005F806446D1C97E6092801002DE9F041D7
:10432000044600251E461746880404D405E0394695
:104330002020B0476D1C641EF9D52846BDE8F081E9
:104340002DE9F041044600251E469046C80301D5DC
:10435000302700E02027880404D505E04146384690
:10436000B0476D1C641EF9D52846BDE8F0810A6887
:10437000531C0B6010707047014880887047000024
:1043800004010020FEB50A200090702101AA072335
:104390003C48FCF773FA0446FDF7AEFC0CB1012073
:1043A000FEBD9DF80400002200F09800182801D0FE
:1043B0000220FEBD0625FF20002301AC3126217816
:1043C00048400021070602D586EA400000E0400090
:1043D000491CC9B2C0B20829F4D35B1CDBB2641C0F
:1043E000AB42ECD39DF80A10814248D19DF80510EC
:1043F0009DF80740080E0B029DF806105918504111
:10440000000140EA11700B012109CD1759186841CC
:10441000491C42F21075A1FB056740F1000000FB4A
:104420000570002301FB0300010341EA1650164BFF
:1044300004F00F010C029880C80F000240EA1160DE
:104440009DF8081061185041000240EA11600C020A
:104450009DF8091061185041491C40F100026C00A0
:10446000A1FB045602FB0462002001FB00200103B3
:1044700041EA1550A0EBA40058800020FEBD0320A7
:10448000FEBD000010010020040100200148B0F929
:1044900002007047040100200248012101700A2136
:1044A00081607047040100207FB5174CA1688842E5
:1044B00026D30A30A06021780226002539B10129CF
:1044C00002D002291CD115E06430A06017E033202F
:1044D0008DF80C008DF80D5003A802230A258DE8F5
:1044E00029007021AC2201230848FCF7BFFAFDF730
:1044F00003FC02E0FFF746FF08B1267000E02570DC
:10450000207804B070BD00000401002010010020DC
:1045100000B587B014216846FBF794FE0A480021D5
:10452000026842F001020260006800F0010005909C
:104530000120CDE900010220029069460348FBF703
:10454000BBFF07B000BD0000303802400000024051
:1045500070B586B014216846FBF774FE0D48002440
:10456000016841F0040101600068012200F00400CC
:10457000094E5503059029463046FCF795F8012071
:104580000095CDE90104694630460394FBF794FF9A
:1045900006B070BD30380240000802404FF40051B0
:1045A0000148FCF779B800000008024090B0FCF721
:1045B0004DFBFDF739FFFDF707FEFDF723FEFDF785
:1045C00041FEFFF7A5FFFFF7C3FFFFF765FFFCF70D
:1045D00071F80446FCF76EF80546FFF765FF022800
:1045E00001D1FFF7DBFFA542F4D905F57A74FFF797
:1045F000C3FE6425B0FBF5F105FB1108FFF7BCFE17
:10460000B0FBF5F7FFF742FF90FBF5F105FB110654
:10461000FFF73CFF90FBF5F2CDE90078334604A1AB
:1046200002A8FFF7CFFCC1B202A8FBF783FED1E7D7
:1046300074656D70657261747572653A20253364B6
:104640002E2530326427432C68756D69646E65735E
:10465000733A202532642E2530326425250D0A0058
:104660000000000000000000010203040607080922
:10467000000000000102030498460008000000202A
:10468000100100000C400008A8470008100100209D
:10469000382000001C400008A52A0008D52A000880
:1046A000E12A0008092B0008352B0008852A00089C
:1046B000B12A0008040309041201000202020040AA
:1046C0008304405700020102030100001A030000A6
:1046D00000000000000000000000000000000000DA
:1046E0000000000000000000F5020008EF020008D2
:1046F000EB02000819030008310300080100000064
:1047000010000000000000000024F4000000000081
:10471000810182000A060002000000400100000042
:1047200009024300020100C0320904000001020234
:1047300001000524001001052401000104240202E7
:104740000524060001070582030800100904010082
:10475000020A00000007050102400000070581026F
:1047600040000000092700087D250008A728000850
:10477000000000000D260008C92400083F2500089D
:104780000000000000000000000000008D2600086E
:1047900051260008CD26000845260008000000002C
:0847A000000000000000000011
:040000050800019955
:00000001FF
